{
  "_format": "hh-sol-artifact-1",
  "contractName": "SlotMachine",
  "sourceName": "contracts/SlotMachine.sol",
  "abi": [
    {
      "inputs": [],
      "stateMutability": "nonpayable",
      "type": "constructor"
    },
    {
      "anonymous": false,
      "inputs": [
        {
          "indexed": false,
          "internalType": "address",
          "name": "player",
          "type": "address"
        },
        {
          "indexed": false,
          "internalType": "uint256",
          "name": "amount",
          "type": "uint256"
        }
      ],
      "name": "Deposit",
      "type": "event"
    },
    {
      "anonymous": false,
      "inputs": [
        {
          "indexed": false,
          "internalType": "address",
          "name": "player",
          "type": "address"
        },
        {
          "indexed": false,
          "internalType": "uint256",
          "name": "amount",
          "type": "uint256"
        }
      ],
      "name": "Withdraw",
      "type": "event"
    },
    {
      "inputs": [],
      "name": "deposit",
      "outputs": [],
      "stateMutability": "payable",
      "type": "function"
    },
    {
      "inputs": [],
      "name": "getBalance",
      "outputs": [
        {
          "internalType": "uint256",
          "name": "",
          "type": "uint256"
        }
      ],
      "stateMutability": "view",
      "type": "function"
    },
    {
      "inputs": [],
      "name": "owner",
      "outputs": [
        {
          "internalType": "address",
          "name": "",
          "type": "address"
        }
      ],
      "stateMutability": "view",
      "type": "function"
    },
    {
      "inputs": [
        {
          "internalType": "address",
          "name": "",
          "type": "address"
        }
      ],
      "name": "playerBalances",
      "outputs": [
        {
          "internalType": "uint256",
          "name": "",
          "type": "uint256"
        }
      ],
      "stateMutability": "view",
      "type": "function"
    },
    {
      "inputs": [
        {
          "internalType": "uint256",
          "name": "_amount",
          "type": "uint256"
        }
      ],
      "name": "withdraw",
      "outputs": [],
      "stateMutability": "nonpayable",
      "type": "function"
    }
  ],
  "bytecode": "0x6080604052348015600f57600080fd5b50336000806101000a81548173ffffffffffffffffffffffffffffffffffffffff021916908373ffffffffffffffffffffffffffffffffffffffff1602179055506107568061005f6000396000f3fe60806040526004361061004a5760003560e01c806312065fe01461004f5780632e1a7d4d1461007a5780637b38314c146100a35780638da5cb5b146100e0578063d0e30db01461010b575b600080fd5b34801561005b57600080fd5b50610064610115565b6040516100719190610403565b60405180910390f35b34801561008657600080fd5b506100a1600480360381019061009c919061044f565b61015c565b005b3480156100af57600080fd5b506100ca60048036038101906100c591906104da565b61031d565b6040516100d79190610403565b60405180910390f35b3480156100ec57600080fd5b506100f5610335565b6040516101029190610516565b60405180910390f35b610113610359565b005b6000600160003373ffffffffffffffffffffffffffffffffffffffff1673ffffffffffffffffffffffffffffffffffffffff16815260200190815260200160002054905090565b80600160003373ffffffffffffffffffffffffffffffffffffffff1673ffffffffffffffffffffffffffffffffffffffff1681526020019081526020016000205410156101de576040517f08c379a00000000000000000000000000000000000000000000000000000000081526004016101d59061058e565b60405180910390fd5b80600160003373ffffffffffffffffffffffffffffffffffffffff1673ffffffffffffffffffffffffffffffffffffffff168152602001908152602001600020600082825461022d91906105dd565b9250508190555060003373ffffffffffffffffffffffffffffffffffffffff168260405161025a90610642565b60006040518083038185875af1925050503d8060008114610297576040519150601f19603f3d011682016040523d82523d6000602084013e61029c565b606091505b50509050806102e0576040517f08c379a00000000000000000000000000000000000000000000000000000000081526004016102d7906106a3565b60405180910390fd5b7f884edad9ce6fa2440d8a54cc123490eb96d2768479d49ff9c7366125a942436433836040516103119291906106c3565b60405180910390a15050565b60016020528060005260406000206000915090505481565b60008054906101000a900473ffffffffffffffffffffffffffffffffffffffff1681565b34600160003373ffffffffffffffffffffffffffffffffffffffff1673ffffffffffffffffffffffffffffffffffffffff16815260200190815260200160002060008282546103a891906106ec565b925050819055507fe1fffcc4923d04b559f4d29a8bfc6cda04eb5b0d3c460751c2402c5c5cc9109c33346040516103e09291906106c3565b60405180910390a1565b6000819050919050565b6103fd816103ea565b82525050565b600060208201905061041860008301846103f4565b92915050565b600080fd5b61042c816103ea565b811461043757600080fd5b50565b60008135905061044981610423565b92915050565b6000602082840312156104655761046461041e565b5b60006104738482850161043a565b91505092915050565b600073ffffffffffffffffffffffffffffffffffffffff82169050919050565b60006104a78261047c565b9050919050565b6104b78161049c565b81146104c257600080fd5b50565b6000813590506104d4816104ae565b92915050565b6000602082840312156104f0576104ef61041e565b5b60006104fe848285016104c5565b91505092915050565b6105108161049c565b82525050565b600060208201905061052b6000830184610507565b92915050565b600082825260208201905092915050565b7f496e73756666696369656e742062616c616e6365000000000000000000000000600082015250565b6000610578601483610531565b915061058382610542565b602082019050919050565b600060208201905081810360008301526105a78161056b565b9050919050565b7f4e487b7100000000000000000000000000000000000000000000000000000000600052601160045260246000fd5b60006105e8826103ea565b91506105f3836103ea565b925082820390508181111561060b5761060a6105ae565b5b92915050565b600081905092915050565b50565b600061062c600083610611565b91506106378261061c565b600082019050919050565b600061064d8261061f565b9150819050919050565b7f5769746864726177616c206661696c6564000000000000000000000000000000600082015250565b600061068d601183610531565b915061069882610657565b602082019050919050565b600060208201905081810360008301526106bc81610680565b9050919050565b60006040820190506106d86000830185610507565b6106e560208301846103f4565b9392505050565b60006106f7826103ea565b9150610702836103ea565b925082820190508082111561071a576107196105ae565b5b9291505056fea26469706673582212208070c89440490e42a19c6aee2113012cac12e64b6d2a341700ad10efd0d69a2e64736f6c634300081c0033",
  "linkReferences": {},
  "deployedLinkReferences": {}
}