{
  "_format": "hh-sol-artifact-1",
  "contractName": "SlotMachine",
  "sourceName": "contracts/SlotMachine.sol",
  "abi": [
    {
      "inputs": [],
      "stateMutability": "nonpayable",
      "type": "constructor"
    },
    {
      "anonymous": false,
      "inputs": [
        {
          "indexed": true,
          "internalType": "address",
          "name": "player",
          "type": "address"
        },
        {
          "indexed": false,
          "internalType": "uint256",
          "name": "amount",
          "type": "uint256"
        }
      ],
      "name": "Deposit",
      "type": "event"
    },
    {
      "anonymous": false,
      "inputs": [
        {
          "indexed": true,
          "internalType": "address",
          "name": "player",
          "type": "address"
        },
        {
          "indexed": false,
          "internalType": "uint256",
          "name": "newBalance",
          "type": "uint256"
        }
      ],
      "name": "UpdateBalance",
      "type": "event"
    },
    {
      "anonymous": false,
      "inputs": [
        {
          "indexed": true,
          "internalType": "address",
          "name": "player",
          "type": "address"
        },
        {
          "indexed": false,
          "internalType": "uint256",
          "name": "amount",
          "type": "uint256"
        }
      ],
      "name": "Withdraw",
      "type": "event"
    },
    {
      "inputs": [],
      "name": "deposit",
      "outputs": [],
      "stateMutability": "payable",
      "type": "function"
    },
    {
      "inputs": [
        {
          "internalType": "address",
          "name": "player",
          "type": "address"
        }
      ],
      "name": "getPlayerBalance",
      "outputs": [
        {
          "internalType": "uint256",
          "name": "",
          "type": "uint256"
        }
      ],
      "stateMutability": "view",
      "type": "function"
    },
    {
      "inputs": [],
      "name": "getTotalPool",
      "outputs": [
        {
          "internalType": "uint256",
          "name": "",
          "type": "uint256"
        }
      ],
      "stateMutability": "view",
      "type": "function"
    },
    {
      "inputs": [],
      "name": "getTransactionCounter",
      "outputs": [
        {
          "internalType": "uint256",
          "name": "",
          "type": "uint256"
        }
      ],
      "stateMutability": "view",
      "type": "function"
    },
    {
      "inputs": [],
      "name": "owner",
      "outputs": [
        {
          "internalType": "address",
          "name": "",
          "type": "address"
        }
      ],
      "stateMutability": "view",
      "type": "function"
    },
    {
      "inputs": [],
      "name": "ownerWithdraw",
      "outputs": [],
      "stateMutability": "nonpayable",
      "type": "function"
    },
    {
      "inputs": [
        {
          "internalType": "address",
          "name": "",
          "type": "address"
        }
      ],
      "name": "playerBalances",
      "outputs": [
        {
          "internalType": "uint256",
          "name": "",
          "type": "uint256"
        }
      ],
      "stateMutability": "view",
      "type": "function"
    },
    {
      "inputs": [
        {
          "internalType": "address",
          "name": "player",
          "type": "address"
        },
        {
          "internalType": "uint256",
          "name": "newBalance",
          "type": "uint256"
        }
      ],
      "name": "updatePlayerBalance",
      "outputs": [],
      "stateMutability": "nonpayable",
      "type": "function"
    },
    {
      "inputs": [
        {
          "internalType": "uint256",
          "name": "_amount",
          "type": "uint256"
        }
      ],
      "name": "withdraw",
      "outputs": [],
      "stateMutability": "nonpayable",
      "type": "function"
    }
  ],
  "bytecode": "0x6080604052348015600f57600080fd5b50336000806101000a81548173ffffffffffffffffffffffffffffffffffffffff021916908373ffffffffffffffffffffffffffffffffffffffff16021790555060006002819055506000600381905550610f788061006f6000396000f3fe6080604052600436106100865760003560e01c806375f4d6771161005957806375f4d6771461011f5780637b38314c1461014a5780638da5cb5b14610187578063d0e30db0146101b2578063e2734c93146101bc57610086565b80632dd1b86b1461008b5780632e1a7d4d146100b65780634311de8f146100df5780635363d646146100f6575b600080fd5b34801561009757600080fd5b506100a06101f9565b6040516100ad9190610960565b60405180910390f35b3480156100c257600080fd5b506100dd60048036038101906100d891906109ac565b610203565b005b3480156100eb57600080fd5b506100f4610451565b005b34801561010257600080fd5b5061011d60048036038101906101189190610a37565b610676565b005b34801561012b57600080fd5b506101346107df565b6040516101419190610960565b60405180910390f35b34801561015657600080fd5b50610171600480360381019061016c9190610a77565b6107e9565b60405161017e9190610960565b60405180910390f35b34801561019357600080fd5b5061019c610801565b6040516101a99190610ab3565b60405180910390f35b6101ba610825565b005b3480156101c857600080fd5b506101e360048036038101906101de9190610a77565b6108fe565b6040516101f09190610960565b60405180910390f35b6000600354905090565b80600160003373ffffffffffffffffffffffffffffffffffffffff1673ffffffffffffffffffffffffffffffffffffffff168152602001908152602001600020541015610285576040517f08c379a000000000000000000000000000000000000000000000000000000000815260040161027c90610b2b565b60405180910390fd5b8060025410156102ca576040517f08c379a00000000000000000000000000000000000000000000000000000000081526004016102c190610b97565b60405180910390fd5b80600160003373ffffffffffffffffffffffffffffffffffffffff1673ffffffffffffffffffffffffffffffffffffffff16815260200190815260200160002060008282546103199190610be6565b9250508190555080600260008282546103329190610be6565b9250508190555060016003600082825461034c9190610be6565b9250508190555060003373ffffffffffffffffffffffffffffffffffffffff168260405161037990610c4b565b60006040518083038185875af1925050503d80600081146103b6576040519150601f19603f3d011682016040523d82523d6000602084013e6103bb565b606091505b50509050806103ff576040517f08c379a00000000000000000000000000000000000000000000000000000000081526004016103f690610cac565b60405180910390fd5b3373ffffffffffffffffffffffffffffffffffffffff167f884edad9ce6fa2440d8a54cc123490eb96d2768479d49ff9c7366125a9424364836040516104459190610960565b60405180910390a25050565b60008054906101000a900473ffffffffffffffffffffffffffffffffffffffff1673ffffffffffffffffffffffffffffffffffffffff163373ffffffffffffffffffffffffffffffffffffffff16146104df576040517f08c379a00000000000000000000000000000000000000000000000000000000081526004016104d690610d18565b60405180910390fd5b600060035414610524576040517f08c379a000000000000000000000000000000000000000000000000000000000815260040161051b90610daa565b60405180910390fd5b600060025411610569576040517f08c379a000000000000000000000000000000000000000000000000000000000815260040161056090610e16565b60405180910390fd5b60006002549050600060028190555060003373ffffffffffffffffffffffffffffffffffffffff168260405161059e90610c4b565b60006040518083038185875af1925050503d80600081146105db576040519150601f19603f3d011682016040523d82523d6000602084013e6105e0565b606091505b5050905080610624576040517f08c379a000000000000000000000000000000000000000000000000000000000815260040161061b90610cac565b60405180910390fd5b3373ffffffffffffffffffffffffffffffffffffffff167f884edad9ce6fa2440d8a54cc123490eb96d2768479d49ff9c7366125a94243648360405161066a9190610960565b60405180910390a25050565b60008054906101000a900473ffffffffffffffffffffffffffffffffffffffff1673ffffffffffffffffffffffffffffffffffffffff163373ffffffffffffffffffffffffffffffffffffffff1614610704576040517f08c379a00000000000000000000000000000000000000000000000000000000081526004016106fb90610e82565b60405180910390fd5b600254811115610749576040517f08c379a000000000000000000000000000000000000000000000000000000000815260040161074090610eee565b60405180910390fd5b80600160008473ffffffffffffffffffffffffffffffffffffffff1673ffffffffffffffffffffffffffffffffffffffff168152602001908152602001600020819055508173ffffffffffffffffffffffffffffffffffffffff167fc66f925f5ab3e2b78af5e6665528857394aaf2c48b188ccab0ead737fa33ed7a826040516107d39190610960565b60405180910390a25050565b6000600254905090565b60016020528060005260406000206000915090505481565b60008054906101000a900473ffffffffffffffffffffffffffffffffffffffff1681565b34600260008282546108379190610f0e565b925050819055506001600360008282546108519190610f0e565b9250508190555034600160003373ffffffffffffffffffffffffffffffffffffffff1673ffffffffffffffffffffffffffffffffffffffff16815260200190815260200160002060008282546108a79190610f0e565b925050819055503373ffffffffffffffffffffffffffffffffffffffff167fe1fffcc4923d04b559f4d29a8bfc6cda04eb5b0d3c460751c2402c5c5cc9109c346040516108f49190610960565b60405180910390a2565b6000600160008373ffffffffffffffffffffffffffffffffffffffff1673ffffffffffffffffffffffffffffffffffffffff168152602001908152602001600020549050919050565b6000819050919050565b61095a81610947565b82525050565b60006020820190506109756000830184610951565b92915050565b600080fd5b61098981610947565b811461099457600080fd5b50565b6000813590506109a681610980565b92915050565b6000602082840312156109c2576109c161097b565b5b60006109d084828501610997565b91505092915050565b600073ffffffffffffffffffffffffffffffffffffffff82169050919050565b6000610a04826109d9565b9050919050565b610a14816109f9565b8114610a1f57600080fd5b50565b600081359050610a3181610a0b565b92915050565b60008060408385031215610a4e57610a4d61097b565b5b6000610a5c85828601610a22565b9250506020610a6d85828601610997565b9150509250929050565b600060208284031215610a8d57610a8c61097b565b5b6000610a9b84828501610a22565b91505092915050565b610aad816109f9565b82525050565b6000602082019050610ac86000830184610aa4565b92915050565b600082825260208201905092915050565b7f496e73756666696369656e742066756e64000000000000000000000000000000600082015250565b6000610b15601183610ace565b9150610b2082610adf565b602082019050919050565b60006020820190508181036000830152610b4481610b08565b9050919050565b7f496e73756666696369656e742066756e647320696e20706f6f6c000000000000600082015250565b6000610b81601a83610ace565b9150610b8c82610b4b565b602082019050919050565b60006020820190508181036000830152610bb081610b74565b9050919050565b7f4e487b7100000000000000000000000000000000000000000000000000000000600052601160045260246000fd5b6000610bf182610947565b9150610bfc83610947565b9250828203905081811115610c1457610c13610bb7565b5b92915050565b600081905092915050565b50565b6000610c35600083610c1a565b9150610c4082610c25565b600082019050919050565b6000610c5682610c28565b9150819050919050565b7f5769746864726177616c206661696c6564000000000000000000000000000000600082015250565b6000610c96601183610ace565b9150610ca182610c60565b602082019050919050565b60006020820190508181036000830152610cc581610c89565b9050919050565b7f4f6e6c79206f776e65722063616e2077697468647261772066756e6400000000600082015250565b6000610d02601c83610ace565b9150610d0d82610ccc565b602082019050919050565b60006020820190508181036000830152610d3181610cf5565b9050919050565b7f43616e6e6f74207769746864726177206d6f6e657920756e74696c20616c6c2060008201527f7472616e73616374696f6e732061726520736574746c65640000000000000000602082015250565b6000610d94603883610ace565b9150610d9f82610d38565b604082019050919050565b60006020820190508181036000830152610dc381610d87565b9050919050565b7f4e6f206d6f6e657920746f207769746864726177000000000000000000000000600082015250565b6000610e00601483610ace565b9150610e0b82610dca565b602082019050919050565b60006020820190508181036000830152610e2f81610df3565b9050919050565b7f4f6e6c79206f776e65722063616e207570646174652062616c616e6365730000600082015250565b6000610e6c601e83610ace565b9150610e7782610e36565b602082019050919050565b60006020820190508181036000830152610e9b81610e5f565b9050919050565b7f4e65772062616c616e6365206578636565647320706f6f6c0000000000000000600082015250565b6000610ed8601883610ace565b9150610ee382610ea2565b602082019050919050565b60006020820190508181036000830152610f0781610ecb565b9050919050565b6000610f1982610947565b9150610f2483610947565b9250828201905080821115610f3c57610f3b610bb7565b5b9291505056fea2646970667358221220d2f9936fa9e55ce71f397e68500da7f599ea3c6d85bcbcce90f48566086d07ba64736f6c634300081c0033",
  "linkReferences": {},
  "deployedLinkReferences": {}
}